:020000040800F2
:10000000000003205D110008A9110008A9110008D3
:10001000A9110008A9110008A9110008000000009A
:10002000000000000000000000000000A91100080E
:10003000A911000800000000A9110008A91100087A
:10004000A9110008A9110008A9110008A9110008A8
:10005000A9110008A9110008A9110008A911000898
:10006000A9110008A9110008A9110008A911000888
:10007000A9110008A9110008A9110008A911000878
:10008000A9110008A9110008A9110008A911000868
:10009000A9110008A9110008A9110008A911000858
:1000A000A9110008A9110008A9110008A911000848
:1000B000A9110008A9110008A9110008A911000838
:1000C000A9110008A9110008A9110008A911000828
:1000D000A9110008A9110008A9110008A911000818
:1000E000A9110008A9110008A9110008A911000808
:1000F000A9110008A9110008A9110008A9110008F8
:10010000A9110008A9110008A9110008A9110008E7
:10011000A9110008A9110008A9110008A9110008D7
:10012000A9110008A9110008A9110008A9110008C7
:10013000A9110008A9110008A9110008A9110008B7
:10014000A9110008A9110008A9110008A9110008A7
:10015000A9110008A9110008A9110008A911000897
:10016000A9110008A9110008A9110008A911000887
:10017000A9110008A9110008A91100080000000039
:10018000A9110008A9110008A9110008A911000867
:10019000A9110008A9110008A9110008A911000857
:0C01A000A9110008A9110008A91100080D
:1001AC0010B5054C237833B9044B13B10448AFF3A5
:1001BC0000800123237010BD6400002000000000AB
:1001CC00B412000808B5034B1BB103490348AFF345
:1001DC00008008BD0000000068000020B412000878
:1001EC008AB040F20040C4F2020000F55051CDE953
:1001FC00080143F63001C4F2020100F1140202922C
:10020C000A68069142F002020A600168012262F358
:10021C008F31016048F2A06140F640524FF0000C63
:10022C00C0F20101C0F203020490CDF804C007E053
:10023C00029B186840F08000186001980130019012
:10024C00019B8B42F4D001989042F6D10298CDF8E4
:10025C0004C0036823F080030360EEE703685A00D0
:10026C004CBF43F0004323F000431844704700BFD9
:10027C002DE9F84329B34F1E044615463E464FF070
:10028C00000808EB060101EBD171491004EBC10920
:10029C004846FFF7E3FF0346C80008308F4220446E
:1002AC0009D0AB4209D8FFF7D9FF0138A8420AD2CE
:1002BC0001F10108E5E7AB4205D9884501D04E1E96
:1002CC00DFE74FF000094846BDE8F883012807D066
:1002DC00022807D0044B00280CBF1846002070479A
:1002EC000248704702487047B1090008B509000878
:1002FC00B909000830B5234B83B004468D1E3BB3BF
:10030C0001A92846AFF30080E8B101992A46FFF70E
:10031C00AFFF0146B8B1FFF7A1FF4B68A064012BFA
:10032C002CD0002B01F1040024DBFFF797FF0023F6
:10033C00C4E913030368002B11DBFFF78FFF206167
:10034C00002003B030BD00230920236103B030BD71
:10035C000D4B0E49C91AC91018460191D6E7C3F3C3
:10036C000360FFF7B3FF0028206114BF00200920B1
:10037C0003B030BD0123C4E91303DBE70023236181
:10038C000520DEE700000000E4120008A4130008BA
:10039C000368DA0710B5044606D49B0700F1480041
:1003AC0009D500F05BFC2368590709D51A070ED54F
:1003BC00DB0613D510BD00F049FC23685907F5D4B2
:1003CC0004F1D00000F052FC23681A07F0D404F5B5
:1003DC00A87000F053FC2368DB06EBD404F5E8703E
:1003EC00BDE8104000F08EBC092070470346006841
:1003FC0000B11844704700BF704700BF70B5044689
:10040C000E46316C2046FFF775FF054688B9326CF5
:10041C006261236932462146012098470828F0D0B2
:10042C00072806D12846316CFFF7E6FF301D00F097
:10043C0001FC00F0DFFE00BF2DE9F0470D1DD0F8E8
:10044C000C80D0F81890074614460FCDADF5727D90
:10045C000DF10C0CACE80F000FCDACE80F000FCD7C
:10046C00ACE80F0095E80F0002AE4FF0000E8CE8E0
:10047C000F00C6F800E020E0336C7B614FF4F072A3
:10048C0031467AA800F0BDFE3B697AAA394650463F
:10049C009847889B73642146CDE9006905463B4625
:1004AC003A460120C0470446E0B94FF4F0727AA9ED
:1004BC00304600F0A6FE082D1AD1316C3846FFF7F5
:1004CC0019FF09345FFA84FA05460028D4D0B36BBF
:1004DC0073643A46CDE900693B464AF010010120AD
:1004EC00C04700B1092528460DF5727DBDE8F0879F
:1004FC00072DF7D12046316CFFF77EFF03A800F0E3
:10050C0099FB00BF406C7047F0B5CB6B0B6401F1ED
:10051C00040C0E460546BCE80F00F9B001AC0FC444
:10052C00BCE80F000FC4BCE80F000FC49CE80F0020
:10053C004FF0FF3784E80F00009706E02B696A46FE
:10054C00294698470828044608D110992846FFF7F1
:10055C00D1FE0028F2D0092079B0F0BD6846FFF733
:10056C0017FF062CF7D131462846FFF747FF00BF8F
:10057C00C160D96B82611964002219465CE700BF27
:10058C0070B5C66843690B64AEB903690A46044684
:10059C000D46014602209847072805D008280FD1A0
:1005AC0029462046FFF72AFF3046296CFFF724FF27
:1005BC00281D00F03FFB0122FFF73EFF00F01AFE62
:1005CC0000F018FEC2681AB1CA6B0A64002233E745
:1005DC009AE700BF704700BF836801460BB101204A
:1005EC0018477047012912D009D873B90F2A0CD8B3
:1005FC0000EB820218465368009A13607047033967
:10060C00012994BF01200220704702207047084640
:10061C00704700BF00B585B00A46002303A90091BE
:10062C001946FFF7DFFF039805B05DF804FB00BF28
:10063C00012912D009D873B90F2A0CD800EB82000B
:10064C00009A12684260184670470339012994BF1A
:10065C00012002207047022070470846704700BFF7
:10066C0010B584B0002303AC039200940A461946DB
:10067C00FFF7DEFF04B010BD70B5D36B136402F14D
:10068C00040C05460C46BCE80F00ADF50E7D0DF1D3
:10069C005C0EAEE80F00BCE80F00AEE80F00BCE843
:1006AC000F00AEE80F009CE80F004FF0FF368EE80D
:1006BC000F00169610E0FFF7D3FF214616A8A847A7
:1006CC00034616AA6946082083B9049B9847052857
:1006DC0006460CD0092809D026996846FFF70AFE71
:1006EC0003466A460C2116A8002BE4D0092616A84E
:1006FC00FFF74EFE30460DF50E7D70BD2DE9F04F27
:10070C00CC6C89B01E4654F8043B06940D46174633
:10071C0000F00308002E79D01A0C1B0405938DF8F9
:10072C001D200223D2B204EB82048DF81C302B6DF9
:10073C00B8F1020F08BFAC6B13F001030CD005A984
:10074C00384600F079FB18B9082009B0BDE8F08FE5
:10075C00092009B0BDE8F08FD4F800A0BAF1000F61
:10076C00EDD0019300F008030293022E4AD0B4F8A6
:10077C0000A0B4F802900434AB6C29F0010B0F21EB
:10078C0038469B44FFF746FF834539D82AF00103CE
:10079C009B44834594BF002001204FEA490303F09A
:1007AC0002030AF0010A43EA0A03012B49D0022B87
:1007BC0032D0002BCCD1B8F1000F02D0002840F081
:1007CC00CD800434D4F800A0BAF1000FCDD105A926
:1007DC00384600F031FB0028BAD1019B002BB3D076
:1007EC000F213846FFF716FF0E2102463846FFF759
:1007FC0037FF38466A4A0F21FFF732FF0720A8E778
:10080C000020CAE7D4F804900834B5E71B0205931E
:10081C000323ADF81C308AE7236823F0004BB8F1B2
:10082C00000F45D128B1029A002A5CD0BBF1000F11
:10083C0074D0002B00DA04340BF1010B04EB8B04A5
:10084C00C0E7B8F1000F19D1B0B163682268991CE8
:10085C004FEAD2723FF47CAF05F158010133049199
:10086C0000F09080201DFFF7C1FD04AB0146284627
:10087C00AFF3008000285BD10834A3E70D21384684
:10088C00D5F82090FFF7C6FE8145F5D1AB6A9C42A6
:10089C00F2D12046FFF7E2FC0F2102463846FFF763
:1008AC00DFFE38462A460021FFF7DAFE072050E724
:1008BC000D213846D5F82090FFF7ACFE814501D0CC
:1008CC002368B6E7AB6A9C42FAD104230022C5E93F
:1008DC000B23E318C5F828B06B632368002B59DB96
:1008EC0001230193A8E705F15803CDF80C8004F11E
:1008FC00040AB04691461E460EE050460496FFF799
:10090C0075FD0022014604AB284609F101090AF1E4
:10091C00040AAFF30080E0B9D945EED10D21384679
:10092C00FFF778FE049BAC62C5E90803062010E7CC
:10093C0081460D213846FFF76DFEB9F1020F286292
:10094C0025D12B46049A43F82C2F6B62AC620620FF
:10095C00FFE646462368DDF80C806AE72046FFF781
:10096C007DFC04340246AC6328461446AFF3008089
:10097C0000283FF4EDAE384622460F21FFF770FEFB
:10098C000720E6E60D213846FFF744FE2862049B5B
:10099C006B62DBE70BF1010004EB80007AE700BF30
:1009AC00000000000023A9E60123A7E60223A5E628
:1009BC002DE9F0430646C3B015461C46042900F247
:1009CC00BF80DFE801F09E57BD2D0300002C40F0E6
:1009DC00B780102A00F2B4800368D80600F1F980C1
:1009EC0020AF384600F098F9B46B394600234FF02D
:1009FC00010C0CFA03F22A42204603F1010303D046
:100A0C0050F8042B0A600446042B01F10401F0D1C8
:100A1C003846B46300F076F9002043B0BDE8F083AB
:100A2C00032C40F08D8094B204EB1243102B4FEA50
:100A3C00124500F2858003681F0700F1D28020AFB9
:100A4C00384600F03DF9B26B07EBC50154B10B46CB
:100A5C00D01A01EBC401E4001D5843F8045B8B422F
:100A6C00FAD122443846B26300F008F9002043B0B2
:100A7C00BDE8F083012C4FEA124895B25CD0052CEE
:100A8C005ED108EB0509B9F1200F59D8B8F10F0F59
:100A9C0079D9A946002D40F08A80B36B6DB320AF95
:100AAC004FF0000907EBC807043F03EBC50553F8EB
:100ABC00041B47F8041FAB42F9D1B9F1000F0FD05A
:100ACC006F464146102938BF102107EBC10184390C
:100ADC0003EBC90553F8040B41F8040FAB42F9D1F1
:100AEC00012C00F08680B8F10F0FB56347D9B9F12E
:100AFC00000F02D0684600F0B9F8002043B0BDE802
:100B0C00F083ECB9806B23461FFA82FC0124371D5D
:100B1C0004FA03F212EA0C0F014604D051F8042B2C
:100B2C0047F8232008460133102BF1D115F400555A
:100B3C00E3D1B063284604E008EB0503102B03D97E
:100B4C00022043B0BDE8F083B8F10F0FF8D833683A
:100B5C00DA0706D5304623F0030340F8483B00F093
:100B6C0079F820AF384600F075F8B36B002D97D1AB
:100B7C001D460435B563384600F068F8BDE720A87B
:100B8C0000F06CF8B3E7B9F1100F40D9A9F11009D6
:100B9C003368D90708D523F00103304643F002032C
:100BAC0040F8483B00F05EF8B9F1000F32D03368E2
:100BBC005A0720D4B8F10F0F25D96F463846C8F123
:100BCC00100500F057F8002DB36B7FF77AAF20AF0C
:100BDC0068E723F01003336006F5E87000F09CF82A
:100BEC00FEE623F00803036000F5A87000F068F837
:100BFC0025E720AFBDE7304623F0040340F8D03B97
:100C0C0000F038F8D6E720A800F02CF8D5E74FF024
:100C1C000009BDE7B8F10F0F3FF63FAF20AF3846E4
:100C2C0000F020F8B36B002D7FF43AAF384600F09B
:100C3C0015F862E700F1340191E838009C46A646AD
:100C4C004CF8045D90E8FF0FE54600BD90EC210BDD
:100C5C00704700BF80EC210B704700BF90EC200B5D
:100C6C00704700BF80EC200B704700BFD0EC200B0E
:100C7C00704700BFC0EC200B704700BFF0EC0201C6
:100C8C00F0EC0211F0EC0221F0EC0231F0EC02413C
:100C9C00F0EC0251F0EC0261F0EC0271F0EC02812C
:100CAC00F0EC0291F0EC02A1F0EC02B1F0EC02C11C
:100CBC00F0EC02D1F0EC02E1F0EC02F1704700BF75
:100CCC00E0EC0201E0EC0211E0EC0221E0EC02317C
:100CDC00E0EC0241E0EC0251E0EC0261E0EC02716C
:100CEC00E0EC0281E0EC0291E0EC02A1E0EC02B15C
:100CFC00E0EC02C1E0EC02D1E0EC02E1E0EC02F14C
:100D0C00704700BFB0FC0181B0FC0191B0FC01A1A7
:100D1C00B0FC01B1704700BFA0FC0181A0FC0191A7
:100D2C00A0FC01A1A0FC01B1704700BFEC4600B5CE
:100D3C002DE900502DE9FF1F4FF000032DE90C00A9
:100D4C0001A9FFF7E1FBDDF840E012B0704700BFEE
:100D5C00EC4600B52DE900502DE9FF1F4FF00003C4
:100D6C002DE90C0001A9FFF70BFCDDF840E012B0F7
:100D7C00704700BFEC4600B52DE900502DE9FF1F70
:100D8C004FF000032DE90C0001A9FFF71BFCDDF867
:100D9C0040E012B0704700BFEC4600B52DE90050A2
:100DAC002DE9FF1F4FF000032DE90C0001ABFFF7FD
:100DBC00DFFBDDF840E012B0704700BFEC4600B539
:100DCC002DE900502DE9FF1F4FF000032DE90C0019
:100DDC0001AAFFF751FCDDF840E012B0704700BFEC
:100DEC00027A03467AB9427AA2B14168013A10B448
:100DFC004272086803220C1D1A7202025C60000E1B
:100E0C0010BC1A6070470068013A1A7202021A602C
:100E1C00000E7047B020704700B585B0002303AAC0
:100E2C00009219460C22FFF7DDFB039805B05DF824
:100E3C0004FB00BFF0E700BF2DE9F043054685B089
:100E4C000E464FF000083046FFF7CAFFB0280446A4
:100E5C0000F0BA80070620D500F0F003802B4DD0AF
:100E6C00902B36D0A02B60D0B02B74D0C02B00F0C0
:100E7C008B8000F0F803D02B0BD100F0070201326D
:100E8C00052342F4002201212846FFF791FD00289A
:100E9C00D9D0092005B0BDE8F0838300DBB21F1D5B
:100EAC000DF10C0900231946CDF800900D222846AF
:100EBC00FFF798FB039BCDF8009060064CBFDF1B3F
:100ECC00FF1800230D22194628460397FFF7B0FBA5
:100EDC00B9E700F00D030D2BDBD003AF002300F0BE
:100EEC000F02194600972846FFF77CFB002300975A
:100EFC000D2219462846FFF79BFBA4E73046FFF767
:100F0C006FFF24022043B0F5004FC2D00401002330
:100F1C00A2B219462846FFF74BFD0028B9D114F4AC
:100F2C00004F18BF4FF001088DE7C24302F00703D2
:100F3C004FF47F621A41010702F47F624FF0000305
:100F4C0048BF42F4804219462846FFF731FD00287D
:100F5C003FF479AF9DE7B1283BD0B22800F09380E5
:100F6C00B32841D000F0FC03B42B92D000F0070260
:100F7C000132012342F4002219462846FFF718FDDE
:100F8C0000283FF460AF84E7C6284AD0C72854D065
:100F9C0000F0F803C02B63D0C82868D0C9287FF4B0
:100FAC0078AF3046FFF71CFF020300F00F0002F48D
:100FBC00702201300243012105232846FFF7F8FC7B
:100FCC0000283FF440AF64E7B8F1000F18D00020C0
:100FDC0060E73046FFF704FF024600283FF459AFA4
:100FEC0010F0F003C8D054E73046FFF7F9FE0203C7
:100FFC0000F00F03013302F470221A430123BBE704
:10100C0003AC43460E22414600942846FFF7EAFA09
:10101C00009443460F2241462846FFF709FB404601
:10102C0038E73046FFF7DCFE020300F00F03013314
:10103C0002F470221A4303239EE73046FFF7D0FEDA
:10104C00024600283FF425AF10F0F0037FF421AFE7
:10105C0004212846FFF7ACFC00283FF4F4AE18E757
:10106C0000F00F020132032342F4202284E73046C1
:10107C00FFF7B6FE00F0F00200F00F031032013360
:10108C0043EA023297E700230DF10C090D221946B1
:10109C00CDF800902846FFF7A5FA3046FFF7A0FEE2
:1010AC0002064FF002040CD5039B00F07F00A04019
:1010BC00184403903046FFF793FE030604F107042F
:1010CC00F2D4039BCDF8009000F07F02A24003F510
:1010DC0001731A440023039219460D222846FFF788
:1010EC00A7FAB0E610B5C26C536884B04FF0030C8D
:1010FC0008321C0208461B0E01A9019402928DF8BD
:10110C000CC08DF80D30FFF797FE04B010BD00BF7A
:10111C0008B5FFF78FFE806C08BD00BF08B5FFF760
:10112C0089FEC06CC379023300EB830008BD00BF9D
:10113C000120704708B500F033F8162303604FF018
:10114C00FF3008BD08B54FF0FF31FFF7F3FFFEE7A6
:10115C00DFF830D00C480D490D4A002302E0D4587A
:10116C00C4500433C4188C42F9D30A4A0A4C0023E5
:10117C0001E013600432A242FBD300F017F8FFF732
:10118C002FF87047000003200000002064000020AE
:10119C00AC1300086400002084000020FEE700006F
:1011AC00014B1868704700BF0000002070B50D4D52
:1011BC000D4C641BA4100026A64209D10B4D0C4CFF
:1011CC0000F072F8641BA4100026A64205D170BD75
:1011DC0055F8043B98470136EEE755F8043B984721
:1011EC000136F2E7A4130008A4130008A4130008A6
:1011FC00A813000808B5062000F03AF80120FFF704
:10120C00A1FF0A44914200F1FF3300D1704710B5A1
:10121C0011F8014B03F8014F9142F9D110BD1F2970
:10122C0038B504460D4604D9162303604FF0FF3041
:10123C0038BD426C12B152F821304BB9204600F047
:10124C0031F82A4601462046BDE8384000F018B86F
:10125C00012B0AD0591C03D1162303600120E7E7A8
:10126C00002442F82540284698470020E0E700007B
:10127C00024B01461868FFF7D2BF00BF00000020E8
:10128C0038B5074D00230446084611462B60FFF77E
:10129C0051FF431C02D12B6803B1236038BD00BF42
:1012AC0080000020FFF744BFF8B500BFF8BC08BCB5
:1012BC009E467047F8B500BFF8BC08BC9E46704708
:1012CC0008B10181B0B000840000000008B10181B8
:0812DC00B0B000840000000026
:1012E40008EFFF7FB0B0B0807CEFFF7F010000000B
:1012F4000CF0FF7FB0A90280A0F0FF7FB0B0A880FF
:10130400F0F0FF7F01000000FCF0FF7FB0B0AA8086
:1013140030F1FF7FAE71B280F4F1FF7F0100000075
:10132400F0F1FF7FAB3F388050F2FF7F01000000F7
:1013340058F2FF7FB0B0AA8094F2FF7F0100000052
:1013440040F3FF7FAA0DB280BCF3FF7FB0AF0880EB
:101354005CF6FF7F0100000060F6FF7FAD3F028076
:10136400DCF8FF7F01000000B8FAFF7F00840480EE
:10137400CCFAFF7F01000000C8FAFF7FB0AD048003
:101384006CFDFF7FB0A8038090FDFF7F3CFFFF7FD3
:1013940094FDFF7F40FFFF7FA0FDFF7F0100000061
:0413A400D10100086B
:0413A800AD0100088B
:1013AC00040000200000000000000000000000000D
:1013BC000000000000000000000000000000000021
:1013CC000000000000000000000000000000000011
:1013DC000000000000000000000000000000000001
:1013EC0000000000000000000000000000000000F1
:1013FC0000000000000000000000000000000000E1
:04140C0000000000DC
:040000050800115D81
:00000001FF
